{
  "address": "0xCf7Ed3AccA5a467e9e704C703E8D87F634fB0Fc9",
  "abi": [
    {
      "inputs": [
        {
          "internalType": "address",
          "name": "vrfCoordinatorV2",
          "type": "address"
        },
        {
          "internalType": "uint256",
          "name": "entranceFee",
          "type": "uint256"
        },
        {
          "internalType": "bytes32",
          "name": "gasLane",
          "type": "bytes32"
        },
        {
          "internalType": "uint64",
          "name": "subscriptionId",
          "type": "uint64"
        },
        {
          "internalType": "uint32",
          "name": "callbackGasLimit",
          "type": "uint32"
        },
        {
          "internalType": "uint256",
          "name": "interval",
          "type": "uint256"
        }
      ],
      "stateMutability": "nonpayable",
      "type": "constructor"
    },
    {
      "inputs": [],
      "name": "Lottery__NotEnoughETHEntered",
      "type": "error"
    },
    {
      "inputs": [],
      "name": "Lottery__NotOpen",
      "type": "error"
    },
    {
      "inputs": [],
      "name": "Lottery__TransferFailed",
      "type": "error"
    },
    {
      "inputs": [
        {
          "internalType": "uint256",
          "name": "currentBalance",
          "type": "uint256"
        },
        {
          "internalType": "uint256",
          "name": "numPlayers",
          "type": "uint256"
        },
        {
          "internalType": "uint256",
          "name": "lotteryState",
          "type": "uint256"
        }
      ],
      "name": "Lottery__UpkeepNotNeeded",
      "type": "error"
    },
    {
      "inputs": [
        {
          "internalType": "address",
          "name": "have",
          "type": "address"
        },
        {
          "internalType": "address",
          "name": "want",
          "type": "address"
        }
      ],
      "name": "OnlyCoordinatorCanFulfill",
      "type": "error"
    },
    {
      "anonymous": false,
      "inputs": [
        {
          "indexed": true,
          "internalType": "address",
          "name": "player",
          "type": "address"
        }
      ],
      "name": "LotteryEnter",
      "type": "event"
    },
    {
      "anonymous": false,
      "inputs": [
        {
          "indexed": true,
          "internalType": "uint256",
          "name": "requestId",
          "type": "uint256"
        }
      ],
      "name": "RequestedLotteryWinner",
      "type": "event"
    },
    {
      "anonymous": false,
      "inputs": [
        {
          "indexed": true,
          "internalType": "address",
          "name": "winner",
          "type": "address"
        }
      ],
      "name": "WinnerPicked",
      "type": "event"
    },
    {
      "inputs": [
        {
          "internalType": "bytes",
          "name": "",
          "type": "bytes"
        }
      ],
      "name": "checkUpkeep",
      "outputs": [
        {
          "internalType": "bool",
          "name": "upkeepNeeded",
          "type": "bool"
        },
        {
          "internalType": "bytes",
          "name": "",
          "type": "bytes"
        }
      ],
      "stateMutability": "nonpayable",
      "type": "function"
    },
    {
      "inputs": [],
      "name": "enterLottery",
      "outputs": [],
      "stateMutability": "payable",
      "type": "function"
    },
    {
      "inputs": [],
      "name": "getEntranceFee",
      "outputs": [
        {
          "internalType": "uint256",
          "name": "",
          "type": "uint256"
        }
      ],
      "stateMutability": "view",
      "type": "function"
    },
    {
      "inputs": [],
      "name": "getInterval",
      "outputs": [
        {
          "internalType": "uint256",
          "name": "",
          "type": "uint256"
        }
      ],
      "stateMutability": "view",
      "type": "function"
    },
    {
      "inputs": [],
      "name": "getLatestTimestamp",
      "outputs": [
        {
          "internalType": "uint256",
          "name": "",
          "type": "uint256"
        }
      ],
      "stateMutability": "view",
      "type": "function"
    },
    {
      "inputs": [],
      "name": "getLotteryState",
      "outputs": [
        {
          "internalType": "enum Lottery.LotteryState",
          "name": "",
          "type": "uint8"
        }
      ],
      "stateMutability": "view",
      "type": "function"
    },
    {
      "inputs": [],
      "name": "getNumWords",
      "outputs": [
        {
          "internalType": "uint256",
          "name": "",
          "type": "uint256"
        }
      ],
      "stateMutability": "pure",
      "type": "function"
    },
    {
      "inputs": [],
      "name": "getNumberofPlayers",
      "outputs": [
        {
          "internalType": "uint256",
          "name": "",
          "type": "uint256"
        }
      ],
      "stateMutability": "view",
      "type": "function"
    },
    {
      "inputs": [
        {
          "internalType": "uint256",
          "name": "index",
          "type": "uint256"
        }
      ],
      "name": "getPlayers",
      "outputs": [
        {
          "internalType": "address",
          "name": "",
          "type": "address"
        }
      ],
      "stateMutability": "view",
      "type": "function"
    },
    {
      "inputs": [],
      "name": "getRecentWinner",
      "outputs": [
        {
          "internalType": "address",
          "name": "",
          "type": "address"
        }
      ],
      "stateMutability": "view",
      "type": "function"
    },
    {
      "inputs": [],
      "name": "getRequestConfirmations",
      "outputs": [
        {
          "internalType": "uint256",
          "name": "",
          "type": "uint256"
        }
      ],
      "stateMutability": "pure",
      "type": "function"
    },
    {
      "inputs": [
        {
          "internalType": "bytes",
          "name": "",
          "type": "bytes"
        }
      ],
      "name": "performUpkeep",
      "outputs": [],
      "stateMutability": "nonpayable",
      "type": "function"
    },
    {
      "inputs": [
        {
          "internalType": "uint256",
          "name": "requestId",
          "type": "uint256"
        },
        {
          "internalType": "uint256[]",
          "name": "randomWords",
          "type": "uint256[]"
        }
      ],
      "name": "rawFulfillRandomWords",
      "outputs": [],
      "stateMutability": "nonpayable",
      "type": "function"
    }
  ],
  "transactionHash": "0x4e79321252bbac6beefb6a9eaeb547d8a6239ce961056e837660035abbbfa980",
  "args": [
    "0x5FbDB2315678afecb367f032d93F642f64180aa3",
    "10000000000000000",
    "0x79d3d8832d904592c0bf9818b621522c988bb8b0c05cdc3b15aea1b6e8db0c15",
    "1",
    "500000",
    "30"
  ],
  "numDeployments": 1,
  "solcInputHash": "b4ea3b1d54c747494e0a97fcca84b157",
  "bytecode": "0x6101606040523480156200001257600080fd5b506040516200185b3803806200185b8339818101604052810190620000389190620001ad565b858073ffffffffffffffffffffffffffffffffffffffff1660808173ffffffffffffffffffffffffffffffffffffffff1660601b81525050508460a081815250508573ffffffffffffffffffffffffffffffffffffffff1660c08173ffffffffffffffffffffffffffffffffffffffff1660601b815250508360e081815250508267ffffffffffffffff166101008167ffffffffffffffff1660c01b815250508163ffffffff166101208163ffffffff1660e01b81525050806101408181525050426002819055506000600360006101000a81548160ff02191690836001811115620001295762000128620002b5565b5b02179055505050505050506200036b565b6000815190506200014b81620002e9565b92915050565b600081519050620001628162000303565b92915050565b60008151905062000179816200031d565b92915050565b600081519050620001908162000337565b92915050565b600081519050620001a78162000351565b92915050565b60008060008060008060c08789031215620001cd57620001cc620002e4565b5b6000620001dd89828a016200013a565b9650506020620001f089828a0162000168565b95505060406200020389828a0162000151565b94505060606200021689828a0162000196565b93505060806200022989828a016200017f565b92505060a06200023c89828a0162000168565b9150509295509295509295565b6000620002568262000267565b9050919050565b6000819050919050565b600073ffffffffffffffffffffffffffffffffffffffff82169050919050565b6000819050919050565b600063ffffffff82169050919050565b600067ffffffffffffffff82169050919050565b7f4e487b7100000000000000000000000000000000000000000000000000000000600052602160045260246000fd5b600080fd5b620002f48162000249565b81146200030057600080fd5b50565b6200030e816200025d565b81146200031a57600080fd5b50565b620003288162000287565b81146200033457600080fd5b50565b620003428162000291565b81146200034e57600080fd5b50565b6200035c81620002a1565b81146200036857600080fd5b50565b60805160601c60a05160c05160601c60e0516101005160c01c6101205160e01c61014051611474620003e7600039600081816106d0015261073e01526000610516015260006104f3015260006104d2015260006104960152600081816102fa0152610764015260008181610320015261037401526114746000f3fe6080604052600436106100c25760003560e01c806353a2c19a1161007f5780636e04ff0d116100595780636e04ff0d1461025857806391ad27b414610296578063c1af5785146102c1578063f43b52cb146102cb576100c2565b806353a2c19a146101d75780635f1b0fd8146102025780636b68c03c1461022d576100c2565b806309bc33a7146100c75780631fe543e3146100f25780634585e33b1461011b578063460e204914610144578063473f1ddc1461018157806349a706ce146101ac575b600080fd5b3480156100d357600080fd5b506100dc6102f6565b6040516100e9919061107a565b60405180910390f35b3480156100fe57600080fd5b5061011960048036038101906101149190610e53565b61031e565b005b34801561012757600080fd5b50610142600480360381019061013d9190610d63565b6103de565b005b34801561015057600080fd5b5061016b60048036038101906101669190610df9565b6105de565b6040516101789190610f98565b60405180910390f35b34801561018d57600080fd5b50610196610625565b6040516101a39190610f98565b60405180910390f35b3480156101b857600080fd5b506101c161064f565b6040516101ce919061107a565b60405180910390f35b3480156101e357600080fd5b506101ec61065b565b6040516101f9919061107a565b60405180910390f35b34801561020e57600080fd5b5061021761066a565b604051610224919061107a565b60405180910390f35b34801561023957600080fd5b50610242610677565b60405161024f919061105f565b60405180910390f35b34801561026457600080fd5b5061027f600480360381019061027a9190610db0565b61068e565b60405161028d929190610fdc565b60405180910390f35b3480156102a257600080fd5b506102ab61073a565b6040516102b8919061107a565b60405180910390f35b6102c9610762565b005b3480156102d757600080fd5b506102e06108d1565b6040516102ed919061107a565b60405180910390f35b60007f0000000000000000000000000000000000000000000000000000000000000000905090565b7f000000000000000000000000000000000000000000000000000000000000000073ffffffffffffffffffffffffffffffffffffffff163373ffffffffffffffffffffffffffffffffffffffff16146103d057337f00000000000000000000000000000000000000000000000000000000000000006040517f1cf993f40000000000000000000000000000000000000000000000000000000081526004016103c7929190610fb3565b60405180910390fd5b6103da82826108db565b5050565b60006103f86040518060200160405280600081525061068e565b509050806104675747600080549050600360009054906101000a900460ff16600181111561042957610428611354565b5b6040517f6e195f2500000000000000000000000000000000000000000000000000000000815260040161045e93929190611095565b60405180910390fd5b6001600360006101000a81548160ff0219169083600181111561048d5761048c611354565b5b021790555060007f000000000000000000000000000000000000000000000000000000000000000073ffffffffffffffffffffffffffffffffffffffff16635d3b1d307f00000000000000000000000000000000000000000000000000000000000000007f000000000000000000000000000000000000000000000000000000000000000060037f000000000000000000000000000000000000000000000000000000000000000060016040518663ffffffff1660e01b815260040161055795949392919061100c565b602060405180830381600087803b15801561057157600080fd5b505af1158015610585573d6000803e3d6000fd5b505050506040513d601f19601f820116820180604052508101906105a99190610e26565b9050807febf56642252004c18a776f30d528e7a0ce8c5db14b6596fb6550f630c8a24c6c60405160405180910390a250505050565b60008082815481106105f3576105f2611383565b5b9060005260206000200160009054906101000a900473ffffffffffffffffffffffffffffffffffffffff169050919050565b6000600160009054906101000a900473ffffffffffffffffffffffffffffffffffffffff16905090565b60008080549050905090565b6000600163ffffffff16905090565b6000600361ffff16905090565b6000600360009054906101000a900460ff16905090565b6000606060008060018111156106a7576106a6611354565b5b600360009054906101000a900460ff1660018111156106c9576106c8611354565b5b14905060007f0000000000000000000000000000000000000000000000000000000000000000600254426106fd9190611175565b1190506000806000805490501190506000804711905083801561071d5750825b80156107265750815b801561072f5750805b955050505050915091565b60007f0000000000000000000000000000000000000000000000000000000000000000905090565b7f00000000000000000000000000000000000000000000000000000000000000003410156107bc576040517fec269fd100000000000000000000000000000000000000000000000000000000815260040160405180910390fd5b600060018111156107d0576107cf611354565b5b600360009054906101000a900460ff1660018111156107f2576107f1611354565b5b14610829576040517fe76be6fc00000000000000000000000000000000000000000000000000000000815260040160405180910390fd5b6000339080600181540180825580915050600190039060005260206000200160009091909190916101000a81548173ffffffffffffffffffffffffffffffffffffffff021916908373ffffffffffffffffffffffffffffffffffffffff1602179055503373ffffffffffffffffffffffffffffffffffffffff167f1d64fb5ba9f2548c5b98468d58f25b87b9e866afee0122e92d9fe722bf85076c60405160405180910390a2565b6000600254905090565b60008080549050826000815181106108f6576108f5611383565b5b602002602001015161090891906112c5565b9050600080828154811061091f5761091e611383565b5b9060005260206000200160009054906101000a900473ffffffffffffffffffffffffffffffffffffffff16905080600160006101000a81548173ffffffffffffffffffffffffffffffffffffffff021916908373ffffffffffffffffffffffffffffffffffffffff1602179055506000600360006101000a81548160ff021916908360018111156109b3576109b2611354565b5b0217905550600067ffffffffffffffff8111156109d3576109d26113b2565b5b604051908082528060200260200182016040528015610a015781602001602082028036833780820191505090505b5060009080519060200190610a17929190610b2e565b504260028190555060008173ffffffffffffffffffffffffffffffffffffffff1647604051610a4590610f83565b60006040518083038185875af1925050503d8060008114610a82576040519150601f19603f3d011682016040523d82523d6000602084013e610a87565b606091505b5050905080610ac2576040517f1c94012000000000000000000000000000000000000000000000000000000000815260040160405180910390fd5b600160009054906101000a900473ffffffffffffffffffffffffffffffffffffffff1673ffffffffffffffffffffffffffffffffffffffff167f5b690ec4a06fe979403046eaeea5b3ce38524683c3001f662c8b5a829632f7df60405160405180910390a25050505050565b828054828255906000526020600020908101928215610ba7579160200282015b82811115610ba65782518260006101000a81548173ffffffffffffffffffffffffffffffffffffffff021916908373ffffffffffffffffffffffffffffffffffffffff16021790555091602001919060010190610b4e565b5b509050610bb49190610bb8565b5090565b5b80821115610bd1576000816000905550600101610bb9565b5090565b6000610be8610be3846110f1565b6110cc565b90508083825260208201905082856020860282011115610c0b57610c0a6113eb565b5b60005b85811015610c3b5781610c218882610d39565b845260208401935060208301925050600181019050610c0e565b5050509392505050565b6000610c58610c538461111d565b6110cc565b905082815260208101848484011115610c7457610c736113f0565b5b610c7f848285611252565b509392505050565b600082601f830112610c9c57610c9b6113e6565b5b8135610cac848260208601610bd5565b91505092915050565b60008083601f840112610ccb57610cca6113e6565b5b8235905067ffffffffffffffff811115610ce857610ce76113e1565b5b602083019150836001820283011115610d0457610d036113eb565b5b9250929050565b600082601f830112610d2057610d1f6113e6565b5b8135610d30848260208601610c45565b91505092915050565b600081359050610d4881611427565b92915050565b600081519050610d5d81611427565b92915050565b60008060208385031215610d7a57610d796113fa565b5b600083013567ffffffffffffffff811115610d9857610d976113f5565b5b610da485828601610cb5565b92509250509250929050565b600060208284031215610dc657610dc56113fa565b5b600082013567ffffffffffffffff811115610de457610de36113f5565b5b610df084828501610d0b565b91505092915050565b600060208284031215610e0f57610e0e6113fa565b5b6000610e1d84828501610d39565b91505092915050565b600060208284031215610e3c57610e3b6113fa565b5b6000610e4a84828501610d4e565b91505092915050565b60008060408385031215610e6a57610e696113fa565b5b6000610e7885828601610d39565b925050602083013567ffffffffffffffff811115610e9957610e986113f5565b5b610ea585828601610c87565b9150509250929050565b610eb8816111a9565b82525050565b610ec7816111bb565b82525050565b610ed6816111c7565b82525050565b6000610ee78261114e565b610ef18185611159565b9350610f01818560208601611261565b610f0a816113ff565b840191505092915050565b610f1e81611240565b82525050565b6000610f3160008361116a565b9150610f3c82611410565b600082019050919050565b610f50816111e4565b82525050565b610f5f81611212565b82525050565b610f6e8161121c565b82525050565b610f7d8161122c565b82525050565b6000610f8e82610f24565b9150819050919050565b6000602082019050610fad6000830184610eaf565b92915050565b6000604082019050610fc86000830185610eaf565b610fd56020830184610eaf565b9392505050565b6000604082019050610ff16000830185610ebe565b81810360208301526110038184610edc565b90509392505050565b600060a0820190506110216000830188610ecd565b61102e6020830187610f74565b61103b6040830186610f47565b6110486060830185610f65565b6110556080830184610f65565b9695505050505050565b60006020820190506110746000830184610f15565b92915050565b600060208201905061108f6000830184610f56565b92915050565b60006060820190506110aa6000830186610f56565b6110b76020830185610f56565b6110c46040830184610f56565b949350505050565b60006110d66110e7565b90506110e28282611294565b919050565b6000604051905090565b600067ffffffffffffffff82111561110c5761110b6113b2565b5b602082029050602081019050919050565b600067ffffffffffffffff821115611138576111376113b2565b5b611141826113ff565b9050602081019050919050565b600081519050919050565b600082825260208201905092915050565b600081905092915050565b600061118082611212565b915061118b83611212565b92508282101561119e5761119d6112f6565b5b828203905092915050565b60006111b4826111f2565b9050919050565b60008115159050919050565b6000819050919050565b60008190506111df82611413565b919050565b600061ffff82169050919050565b600073ffffffffffffffffffffffffffffffffffffffff82169050919050565b6000819050919050565b600063ffffffff82169050919050565b600067ffffffffffffffff82169050919050565b600061124b826111d1565b9050919050565b82818337600083830152505050565b60005b8381101561127f578082015181840152602081019050611264565b8381111561128e576000848401525b50505050565b61129d826113ff565b810181811067ffffffffffffffff821117156112bc576112bb6113b2565b5b80604052505050565b60006112d082611212565b91506112db83611212565b9250826112eb576112ea611325565b5b828206905092915050565b7f4e487b7100000000000000000000000000000000000000000000000000000000600052601160045260246000fd5b7f4e487b7100000000000000000000000000000000000000000000000000000000600052601260045260246000fd5b7f4e487b7100000000000000000000000000000000000000000000000000000000600052602160045260246000fd5b7f4e487b7100000000000000000000000000000000000000000000000000000000600052603260045260246000fd5b7f4e487b7100000000000000000000000000000000000000000000000000000000600052604160045260246000fd5b600080fd5b600080fd5b600080fd5b600080fd5b600080fd5b600080fd5b6000601f19601f8301169050919050565b50565b6002811061142457611423611354565b5b50565b61143081611212565b811461143b57600080fd5b5056fea2646970667358221220be38486127ece42ab4efea45e9cfc0368e1b0d2f5d6424ea8c21217f7766d05164736f6c63430008070033",
  "devdoc": {
    "kind": "dev",
    "methods": {},
    "version": 1
  },
  "userdoc": {
    "kind": "user",
    "methods": {},
    "version": 1
  },
  "storageLayout": {
    "storage": [
      {
        "astId": 1165,
        "contract": "contracts/Lottery.sol:Lottery",
        "label": "s_players",
        "offset": 0,
        "slot": "0",
        "type": "t_array(t_address_payable)dyn_storage"
      },
      {
        "astId": 1182,
        "contract": "contracts/Lottery.sol:Lottery",
        "label": "s_recentWinner",
        "offset": 0,
        "slot": "1",
        "type": "t_address"
      },
      {
        "astId": 1184,
        "contract": "contracts/Lottery.sol:Lottery",
        "label": "s_lastTimeStamp",
        "offset": 0,
        "slot": "2",
        "type": "t_uint256"
      },
      {
        "astId": 1187,
        "contract": "contracts/Lottery.sol:Lottery",
        "label": "s_lotteryState",
        "offset": 0,
        "slot": "3",
        "type": "t_enum(LotteryState)1160"
      }
    ],
    "types": {
      "t_address": {
        "encoding": "inplace",
        "label": "address",
        "numberOfBytes": "20"
      },
      "t_address_payable": {
        "encoding": "inplace",
        "label": "address payable",
        "numberOfBytes": "20"
      },
      "t_array(t_address_payable)dyn_storage": {
        "base": "t_address_payable",
        "encoding": "dynamic_array",
        "label": "address payable[]",
        "numberOfBytes": "32"
      },
      "t_enum(LotteryState)1160": {
        "encoding": "inplace",
        "label": "enum Lottery.LotteryState",
        "numberOfBytes": "1"
      },
      "t_uint256": {
        "encoding": "inplace",
        "label": "uint256",
        "numberOfBytes": "32"
      }
    }
  }
}